{
  "_format": "hh-sol-artifact-1",
  "contractName": "Appointment",
  "sourceName": "contracts/Appointment.sol",
  "abi": [
    {
      "anonymous": false,
      "inputs": [
        {
          "indexed": true,
          "internalType": "address",
          "name": "patient",
          "type": "address"
        },
        {
          "indexed": true,
          "internalType": "address",
          "name": "doctor",
          "type": "address"
        },
        {
          "indexed": false,
          "internalType": "uint256",
          "name": "timestamp",
          "type": "uint256"
        },
        {
          "indexed": false,
          "internalType": "string",
          "name": "metadataHash",
          "type": "string"
        },
        {
          "indexed": false,
          "internalType": "uint256",
          "name": "appointmentId",
          "type": "uint256"
        }
      ],
      "name": "AppointmentBooked",
      "type": "event"
    },
    {
      "anonymous": false,
      "inputs": [
        {
          "indexed": true,
          "internalType": "address",
          "name": "patient",
          "type": "address"
        },
        {
          "indexed": false,
          "internalType": "uint256",
          "name": "appointmentId",
          "type": "uint256"
        }
      ],
      "name": "AppointmentCancelled",
      "type": "event"
    },
    {
      "anonymous": false,
      "inputs": [
        {
          "indexed": true,
          "internalType": "address",
          "name": "patient",
          "type": "address"
        },
        {
          "indexed": false,
          "internalType": "uint256",
          "name": "appointmentId",
          "type": "uint256"
        },
        {
          "indexed": false,
          "internalType": "uint256",
          "name": "newTimestamp",
          "type": "uint256"
        }
      ],
      "name": "AppointmentRescheduled",
      "type": "event"
    },
    {
      "inputs": [],
      "name": "appointmentCounter",
      "outputs": [
        {
          "internalType": "uint256",
          "name": "",
          "type": "uint256"
        }
      ],
      "stateMutability": "view",
      "type": "function"
    },
    {
      "inputs": [
        {
          "internalType": "uint256",
          "name": "",
          "type": "uint256"
        }
      ],
      "name": "appointments",
      "outputs": [
        {
          "internalType": "address",
          "name": "patient",
          "type": "address"
        },
        {
          "internalType": "address",
          "name": "doctor",
          "type": "address"
        },
        {
          "internalType": "uint256",
          "name": "timestamp",
          "type": "uint256"
        },
        {
          "internalType": "string",
          "name": "metadataHash",
          "type": "string"
        },
        {
          "internalType": "bool",
          "name": "isActive",
          "type": "bool"
        }
      ],
      "stateMutability": "view",
      "type": "function"
    },
    {
      "inputs": [
        {
          "internalType": "address",
          "name": "doctor",
          "type": "address"
        },
        {
          "internalType": "uint256",
          "name": "timestamp",
          "type": "uint256"
        },
        {
          "internalType": "string",
          "name": "metadataHash",
          "type": "string"
        }
      ],
      "name": "bookAppointment",
      "outputs": [],
      "stateMutability": "nonpayable",
      "type": "function"
    },
    {
      "inputs": [
        {
          "internalType": "uint256",
          "name": "appointmentId",
          "type": "uint256"
        }
      ],
      "name": "cancelAppointment",
      "outputs": [],
      "stateMutability": "nonpayable",
      "type": "function"
    },
    {
      "inputs": [
        {
          "internalType": "uint256",
          "name": "appointmentId",
          "type": "uint256"
        },
        {
          "internalType": "uint256",
          "name": "newTimestamp",
          "type": "uint256"
        }
      ],
      "name": "rescheduleAppointment",
      "outputs": [],
      "stateMutability": "nonpayable",
      "type": "function"
    }
  ],
  "bytecode": "0x6080604052348015600f57600080fd5b50610fda8061001f6000396000f3fe608060405234801561001057600080fd5b506004361061007d5760003560e01c8063a7e644051161005b578063a7e6440514610103578063d2bcd6eb1461011f578063eebc3fb21461013b578063eef28996146101595761007d565b80630286d6911461008257806312dc9013146100a05780636a85de14146100d3575b600080fd5b61008a610189565b6040516100979190610ac1565b60405180910390f35b6100ba60048036038101906100b59190610b14565b6103bf565b6040516100ca9493929190610b6e565b60405180910390f35b6100ed60048036038101906100e89190610bdf565b61043c565b6040516100fa9190610c1f565b60405180910390f35b61011d60048036038101906101189190610b14565b61046d565b005b61013960048036038101906101349190610c3a565b6105c0565b005b610143610702565b6040516101509190610c1f565b60405180910390f35b610173600480360381019061016e9190610bdf565b610708565b6040516101809190610c1f565b60405180910390f35b60606000600260003373ffffffffffffffffffffffffffffffffffffffff1673ffffffffffffffffffffffffffffffffffffffff16815260200190815260200160002080548060200260200160405190810160405280929190818152602001828054801561021657602002820191906000526020600020905b815481526020019060010190808311610202575b505050505090506000815167ffffffffffffffff81111561023a57610239610c7a565b5b60405190808252806020026020018201604052801561027357816020015b6102606108f2565b8152602001906001900390816102585790505b50905060005b82518110156103b6576001600084838151811061029957610298610ca9565b5b602002602001015181526020019081526020016000206040518060800160405290816000820160009054906101000a900473ffffffffffffffffffffffffffffffffffffffff1673ffffffffffffffffffffffffffffffffffffffff1673ffffffffffffffffffffffffffffffffffffffff1681526020016001820160009054906101000a900473ffffffffffffffffffffffffffffffffffffffff1673ffffffffffffffffffffffffffffffffffffffff1673ffffffffffffffffffffffffffffffffffffffff168152602001600282015481526020016003820160009054906101000a900460ff16151515158152505082828151811061039e5761039d610ca9565b5b60200260200101819052508080600101915050610279565b50809250505090565b60016020528060005260406000206000915090508060000160009054906101000a900473ffffffffffffffffffffffffffffffffffffffff16908060010160009054906101000a900473ffffffffffffffffffffffffffffffffffffffff16908060020154908060030160009054906101000a900460ff16905084565b6002602052816000526040600020818154811061045857600080fd5b90600052602060002001600091509150505481565b60006001600083815260200190815260200160002090503373ffffffffffffffffffffffffffffffffffffffff168160000160009054906101000a900473ffffffffffffffffffffffffffffffffffffffff1673ffffffffffffffffffffffffffffffffffffffff1614610516576040517f08c379a000000000000000000000000000000000000000000000000000000000815260040161050d90610d35565b60405180910390fd5b8060030160009054906101000a900460ff1615610568576040517f08c379a000000000000000000000000000000000000000000000000000000000815260040161055f90610da1565b60405180910390fd5b60018160030160006101000a81548160ff0219169083151502179055507f4b0e2b6047be1a990287b0818b6f06236be270f55a306ec58398d8b9aa7f6e73826040516105b49190610c1f565b60405180910390a15050565b60006001600084815260200190815260200160002090503373ffffffffffffffffffffffffffffffffffffffff168160000160009054906101000a900473ffffffffffffffffffffffffffffffffffffffff1673ffffffffffffffffffffffffffffffffffffffff1614610669576040517f08c379a000000000000000000000000000000000000000000000000000000000815260040161066090610e0d565b60405180910390fd5b8060030160009054906101000a900460ff16156106bb576040517f08c379a00000000000000000000000000000000000000000000000000000000081526004016106b290610e9f565b60405180910390fd5b8181600201819055507f02a47dec8390aadd32619224cf716c8e913248227286409afde32bd5ffdf121b83836040516106f5929190610ebf565b60405180910390a1505050565b60005481565b600080600081548092919061071c90610f17565b919050555060405180608001604052803373ffffffffffffffffffffffffffffffffffffffff1681526020018473ffffffffffffffffffffffffffffffffffffffff16815260200183815260200160001515815250600160008054815260200190815260200160002060008201518160000160006101000a81548173ffffffffffffffffffffffffffffffffffffffff021916908373ffffffffffffffffffffffffffffffffffffffff16021790555060208201518160010160006101000a81548173ffffffffffffffffffffffffffffffffffffffff021916908373ffffffffffffffffffffffffffffffffffffffff1602179055506040820151816002015560608201518160030160006101000a81548160ff021916908315150217905550905050600260003373ffffffffffffffffffffffffffffffffffffffff1673ffffffffffffffffffffffffffffffffffffffff16815260200190815260200160002060005490806001815401808255809150506001900390600052602060002001600090919091909150557facb872fcf123b50205564145b9e085c652fa06f3d23ae78b288f5aa8cfaaccc36000543385856040516108df9493929190610f5f565b60405180910390a1600054905092915050565b6040518060800160405280600073ffffffffffffffffffffffffffffffffffffffff168152602001600073ffffffffffffffffffffffffffffffffffffffff168152602001600081526020016000151581525090565b600081519050919050565b600082825260208201905092915050565b6000819050602082019050919050565b600073ffffffffffffffffffffffffffffffffffffffff82169050919050565b600061099f82610974565b9050919050565b6109af81610994565b82525050565b6000819050919050565b6109c8816109b5565b82525050565b60008115159050919050565b6109e3816109ce565b82525050565b6080820160008201516109ff60008501826109a6565b506020820151610a1260208501826109a6565b506040820151610a2560408501826109bf565b506060820151610a3860608501826109da565b50505050565b6000610a4a83836109e9565b60808301905092915050565b6000602082019050919050565b6000610a6e82610948565b610a788185610953565b9350610a8383610964565b8060005b83811015610ab4578151610a9b8882610a3e565b9750610aa683610a56565b925050600181019050610a87565b5085935050505092915050565b60006020820190508181036000830152610adb8184610a63565b905092915050565b600080fd5b610af1816109b5565b8114610afc57600080fd5b50565b600081359050610b0e81610ae8565b92915050565b600060208284031215610b2a57610b29610ae3565b5b6000610b3884828501610aff565b91505092915050565b610b4a81610994565b82525050565b610b59816109b5565b82525050565b610b68816109ce565b82525050565b6000608082019050610b836000830187610b41565b610b906020830186610b41565b610b9d6040830185610b50565b610baa6060830184610b5f565b95945050505050565b610bbc81610994565b8114610bc757600080fd5b50565b600081359050610bd981610bb3565b92915050565b60008060408385031215610bf657610bf5610ae3565b5b6000610c0485828601610bca565b9250506020610c1585828601610aff565b9150509250929050565b6000602082019050610c346000830184610b50565b92915050565b60008060408385031215610c5157610c50610ae3565b5b6000610c5f85828601610aff565b9250506020610c7085828601610aff565b9150509250929050565b7f4e487b7100000000000000000000000000000000000000000000000000000000600052604160045260246000fd5b7f4e487b7100000000000000000000000000000000000000000000000000000000600052603260045260246000fd5b600082825260208201905092915050565b7f4f6e6c79207468652070617469656e742063616e2063616e63656c0000000000600082015250565b6000610d1f601b83610cd8565b9150610d2a82610ce9565b602082019050919050565b60006020820190508181036000830152610d4e81610d12565b9050919050565b7f4170706f696e746d656e7420616c72656164792063616e63656c6c6564000000600082015250565b6000610d8b601d83610cd8565b9150610d9682610d55565b602082019050919050565b60006020820190508181036000830152610dba81610d7e565b9050919050565b7f4f6e6c79207468652070617469656e742063616e2072657363686564756c6500600082015250565b6000610df7601f83610cd8565b9150610e0282610dc1565b602082019050919050565b60006020820190508181036000830152610e2681610dea565b9050919050565b7f43616e6e6f742072657363686564756c6520612063616e63656c6c656420617060008201527f706f696e746d656e740000000000000000000000000000000000000000000000602082015250565b6000610e89602983610cd8565b9150610e9482610e2d565b604082019050919050565b60006020820190508181036000830152610eb881610e7c565b9050919050565b6000604082019050610ed46000830185610b50565b610ee16020830184610b50565b9392505050565b7f4e487b7100000000000000000000000000000000000000000000000000000000600052601160045260246000fd5b6000610f22826109b5565b91507fffffffffffffffffffffffffffffffffffffffffffffffffffffffffffffffff8203610f5457610f53610ee8565b5b600182019050919050565b6000608082019050610f746000830187610b50565b610f816020830186610b41565b610f8e6040830185610b41565b610f9b6060830184610b50565b9594505050505056fea26469706673582212201dfb0b2e79e54ceeb2bc18c224058751a187a9ea5ff249189ccc252945734f5964736f6c634300081b0033",
  "linkReferences": {},
  "deployedLinkReferences": {}
}